{
  "_format": "hh-sol-artifact-1",
  "contractName": "BuyMeACoffee",
  "sourceName": "contracts/BuyMeACoffee.sol",
  "abi": [
    {
      "inputs": [],
      "stateMutability": "nonpayable",
      "type": "constructor"
    },
    {
      "anonymous": false,
      "inputs": [
        {
          "indexed": true,
          "internalType": "address",
          "name": "from",
          "type": "address"
        },
        {
          "indexed": false,
          "internalType": "uint256",
          "name": "timestamp",
          "type": "uint256"
        },
        {
          "indexed": false,
          "internalType": "string",
          "name": "name",
          "type": "string"
        },
        {
          "indexed": false,
          "internalType": "string",
          "name": "message",
          "type": "string"
        }
      ],
      "name": "NewMemo",
      "type": "event"
    },
    {
      "inputs": [
        {
          "internalType": "string",
          "name": "_name",
          "type": "string"
        },
        {
          "internalType": "string",
          "name": "_message",
          "type": "string"
        }
      ],
      "name": "buyCoffee",
      "outputs": [],
      "stateMutability": "payable",
      "type": "function"
    },
    {
      "inputs": [],
      "name": "getMemos",
      "outputs": [
        {
          "components": [
            {
              "internalType": "address",
              "name": "from",
              "type": "address"
            },
            {
              "internalType": "uint256",
              "name": "timestamp",
              "type": "uint256"
            },
            {
              "internalType": "string",
              "name": "name",
              "type": "string"
            },
            {
              "internalType": "string",
              "name": "message",
              "type": "string"
            }
          ],
          "internalType": "struct BuyMeACoffee.Memo[]",
          "name": "",
          "type": "tuple[]"
        }
      ],
      "stateMutability": "view",
      "type": "function"
    },
    {
      "inputs": [
        {
          "internalType": "address payable",
          "name": "_owner",
          "type": "address"
        }
      ],
      "name": "updateWithdrawalAddress",
      "outputs": [],
      "stateMutability": "nonpayable",
      "type": "function"
    },
    {
      "inputs": [],
      "name": "withdrawTips",
      "outputs": [],
      "stateMutability": "nonpayable",
      "type": "function"
    }
  ],
  "bytecode": "0x608060405234801561001057600080fd5b50336000806101000a81548173ffffffffffffffffffffffffffffffffffffffff021916908373ffffffffffffffffffffffffffffffffffffffff160217905550610c58806100606000396000f3fe60806040526004361061003f5760003560e01c8063204206e1146100445780633aaa74b2146100605780635e72fc5d14610077578063865c5172146100a0575b600080fd5b61005e600480360381019061005991906106b0565b6100cb565b005b34801561006c57600080fd5b50610075610253565b005b34801561008357600080fd5b5061009e60048036038101906100999190610687565b6102b3565b005b3480156100ac57600080fd5b506100b5610384565b6040516100c291906108f4565b60405180910390f35b6000341161010e576040517f08c379a000000000000000000000000000000000000000000000000000000000815260040161010590610916565b60405180910390fd5b600160405180608001604052803373ffffffffffffffffffffffffffffffffffffffff16815260200142815260200184815260200183815250908060018154018082558091505060019003906000526020600020906004020160009091909190915060008201518160000160006101000a81548173ffffffffffffffffffffffffffffffffffffffff021916908373ffffffffffffffffffffffffffffffffffffffff1602179055506020820151816001015560408201518160020190805190602001906101dd929190610567565b5060608201518160030190805190602001906101fa929190610567565b5050503373ffffffffffffffffffffffffffffffffffffffff167fc56140e05f516509ae28110e0f72e17558a7561630dad2647c3ae87d986e365c42848460405161024793929190610956565b60405180910390a25050565b60008054906101000a900473ffffffffffffffffffffffffffffffffffffffff1673ffffffffffffffffffffffffffffffffffffffff166108fc479081150290604051600060405180830381858888f193505050506102b157600080fd5b565b60008054906101000a900473ffffffffffffffffffffffffffffffffffffffff1673ffffffffffffffffffffffffffffffffffffffff163373ffffffffffffffffffffffffffffffffffffffff1614610341576040517f08c379a000000000000000000000000000000000000000000000000000000000815260040161033890610936565b60405180910390fd5b806000806101000a81548173ffffffffffffffffffffffffffffffffffffffff021916908373ffffffffffffffffffffffffffffffffffffffff16021790555050565b60606001805480602002602001604051908101604052809291908181526020016000905b8282101561055e57838290600052602060002090600402016040518060800160405290816000820160009054906101000a900473ffffffffffffffffffffffffffffffffffffffff1673ffffffffffffffffffffffffffffffffffffffff1673ffffffffffffffffffffffffffffffffffffffff1681526020016001820154815260200160028201805461043b90610ae7565b80601f016020809104026020016040519081016040528092919081815260200182805461046790610ae7565b80156104b45780601f10610489576101008083540402835291602001916104b4565b820191906000526020600020905b81548152906001019060200180831161049757829003601f168201915b505050505081526020016003820180546104cd90610ae7565b80601f01602080910402602001604051908101604052809291908181526020018280546104f990610ae7565b80156105465780601f1061051b57610100808354040283529160200191610546565b820191906000526020600020905b81548152906001019060200180831161052957829003601f168201915b505050505081525050815260200190600101906103a8565b50505050905090565b82805461057390610ae7565b90600052602060002090601f01602090048101928261059557600085556105dc565b82601f106105ae57805160ff19168380011785556105dc565b828001600101855582156105dc579182015b828111156105db5782518255916020019190600101906105c0565b5b5090506105e991906105ed565b5090565b5b808211156106065760008160009055506001016105ee565b5090565b600061061d610618846109c0565b61099b565b90508281526020810184848401111561063557600080fd5b610640848285610aa5565b509392505050565b60008135905061065781610c0b565b92915050565b600082601f83011261066e57600080fd5b813561067e84826020860161060a565b91505092915050565b60006020828403121561069957600080fd5b60006106a784828501610648565b91505092915050565b600080604083850312156106c357600080fd5b600083013567ffffffffffffffff8111156106dd57600080fd5b6106e98582860161065d565b925050602083013567ffffffffffffffff81111561070657600080fd5b6107128582860161065d565b9150509250929050565b6000610728838361086c565b905092915050565b61073981610a57565b82525050565b600061074a82610a01565b6107548185610a24565b935083602082028501610766856109f1565b8060005b858110156107a25784840389528151610783858261071c565b945061078e83610a17565b925060208a0199505060018101905061076a565b50829750879550505050505092915050565b60006107bf82610a0c565b6107c98185610a35565b93506107d9818560208601610ab4565b6107e281610ba8565b840191505092915050565b60006107f882610a0c565b6108028185610a46565b9350610812818560208601610ab4565b61081b81610ba8565b840191505092915050565b6000610833601a83610a46565b915061083e82610bb9565b602082019050919050565b6000610856600b83610a46565b915061086182610be2565b602082019050919050565b60006080830160008301516108846000860182610730565b50602083015161089760208601826108d6565b50604083015184820360408601526108af82826107b4565b915050606083015184820360608601526108c982826107b4565b9150508091505092915050565b6108df81610a9b565b82525050565b6108ee81610a9b565b82525050565b6000602082019050818103600083015261090e818461073f565b905092915050565b6000602082019050818103600083015261092f81610826565b9050919050565b6000602082019050818103600083015261094f81610849565b9050919050565b600060608201905061096b60008301866108e5565b818103602083015261097d81856107ed565b9050818103604083015261099181846107ed565b9050949350505050565b60006109a56109b6565b90506109b18282610b19565b919050565b6000604051905090565b600067ffffffffffffffff8211156109db576109da610b79565b5b6109e482610ba8565b9050602081019050919050565b6000819050602082019050919050565b600081519050919050565b600081519050919050565b6000602082019050919050565b600082825260208201905092915050565b600082825260208201905092915050565b600082825260208201905092915050565b6000610a6282610a7b565b9050919050565b6000610a7482610a7b565b9050919050565b600073ffffffffffffffffffffffffffffffffffffffff82169050919050565b6000819050919050565b82818337600083830152505050565b60005b83811015610ad2578082015181840152602081019050610ab7565b83811115610ae1576000848401525b50505050565b60006002820490506001821680610aff57607f821691505b60208210811415610b1357610b12610b4a565b5b50919050565b610b2282610ba8565b810181811067ffffffffffffffff82111715610b4157610b40610b79565b5b80604052505050565b7f4e487b7100000000000000000000000000000000000000000000000000000000600052602260045260246000fd5b7f4e487b7100000000000000000000000000000000000000000000000000000000600052604160045260246000fd5b6000601f19601f8301169050919050565b7f63616e27742062757920636f6666656520666f72206672656521000000000000600082015250565b7f4f6e6c79206f776e657221000000000000000000000000000000000000000000600082015250565b610c1481610a69565b8114610c1f57600080fd5b5056fea2646970667358221220e3a1823454f6351bd299c0436e1ec9bfc9c3d1726132a5dc27c29a2e98f77d7964736f6c63430008040033",
  "linkReferences": {},
  "deployedLinkReferences": {}
}